{
  "contractName": "comdexAirdrop",
  "abi": [
    {
      "anonymous": false,
      "inputs": [
        {
          "indexed": false,
          "internalType": "address",
          "name": "sender",
          "type": "address"
        },
        {
          "indexed": false,
          "internalType": "uint256",
          "name": "height",
          "type": "uint256"
        },
        {
          "indexed": false,
          "internalType": "string",
          "name": "xprtAddress",
          "type": "string"
        },
        {
          "indexed": false,
          "internalType": "string",
          "name": "accountAddress",
          "type": "string"
        }
      ],
      "name": "MagicTxEvent",
      "type": "event"
    },
    {
      "inputs": [
        {
          "internalType": "string",
          "name": "xprtAddress",
          "type": "string"
        },
        {
          "internalType": "string",
          "name": "accountAddress",
          "type": "string"
        }
      ],
      "name": "MagicTx",
      "outputs": [],
      "stateMutability": "nonpayable",
      "type": "function"
    }
  ],
  "bytecode": "0x608060405234801561001057600080fd5b506102b2806100206000396000f3fe608060405234801561001057600080fd5b506004361061002b5760003560e01c8063f913d8a614610030575b600080fd5b61015d6004803603604081101561004657600080fd5b81019060208101813564010000000081111561006157600080fd5b82018360208201111561007357600080fd5b8035906020019184600183028401116401000000008311171561009557600080fd5b91908080601f01602080910402602001604051908101604052809392919081815260200183838082843760009201919091525092959493602081019350359150506401000000008111156100e857600080fd5b8201836020820111156100fa57600080fd5b8035906020019184600183028401116401000000008311171561011c57600080fd5b91908080601f01602080910402602001604051908101604052809392919081815260200183838082843760009201919091525092955061015f945050505050565b005b7f2b572e3fac74643773d569642bdeb010a0fd4ac8157013d803f86a575374f4253343848460405180856001600160a01b031681526020018481526020018060200180602001838103835285818151815260200191508051906020019080838360005b838110156101da5781810151838201526020016101c2565b50505050905090810190601f1680156102075780820380516001836020036101000a031916815260200191505b50838103825284518152845160209182019186019080838360005b8381101561023a578181015183820152602001610222565b50505050905090810190601f1680156102675780820380516001836020036101000a031916815260200191505b50965050505050505060405180910390a1505056fea2646970667358221220bfe436f638470c5af634077769d7e06281d80eaf16ecf1a00789479b694aa85b64736f6c63430007060033",
  "immutableReferences": {},
  "source": "// SPDX-License-Identifier: UNLICENSED\npragma solidity >=0.7.0 <0.9.0;\n\ncontract comdexAirdrop{\n\n    event MagicTxEvent(address sender, uint256 height, string xprtAddress, string accountAddress);\n\n    /**\n     * @dev emits the event for xprt address\n     */\n    function MagicTx(string memory xprtAddress, string memory accountAddress) public {\n        emit MagicTxEvent(msg.sender, block.number, xprtAddress, accountAddress);\n    }\n}",
  "sourcePath": "/home/aditimahesh/Documents/Work/Persistence/go/src/github.com/persistenceOne/stakeDrop/comdex_airdrop_contract/contracts/comdexAirdrop.sol",
  "compiler": {
    "name": "solc",
    "version": "0.7.6+commit.7338295f.Emscripten.clang"
  },
  "schemaVersion": "3.3.4",
  "updatedAt": "2021-11-19T06:49:58.780Z",
  "networkType": "ethereum",
  "devdoc": {
    "kind": "dev",
    "methods": {
      "MagicTx(string,string)": {
        "details": "emits the event for xprt address"
      }
    },
    "version": 1
  },
  "userdoc": {
    "kind": "user",
    "methods": {},
    "version": 1
  }
}