{
  "contractName": "StakeDrop3",
  "abi": [
    {
      "inputs": [],
      "stateMutability": "nonpayable",
      "type": "constructor"
    },
    {
      "anonymous": false,
      "inputs": [
        {
          "indexed": false,
          "internalType": "address",
          "name": "sender",
          "type": "address"
        },
        {
          "indexed": false,
          "internalType": "uint256",
          "name": "height",
          "type": "uint256"
        },
        {
          "indexed": false,
          "internalType": "string",
          "name": "xprtAddress",
          "type": "string"
        }
      ],
      "name": "MagicTxEvent",
      "type": "event"
    },
    {
      "inputs": [
        {
          "internalType": "string",
          "name": "xprtAddress",
          "type": "string"
        }
      ],
      "name": "MagicTx",
      "outputs": [],
      "stateMutability": "nonpayable",
      "type": "function"
    }
  ],
  "bytecode": "0x608060405234801561001057600080fd5b5060408051808201909152600b8082526a70657273697374656e636560a81b602090920191825261004391600091610075565b50604080518082019091526001808252603160f81b602090920191825261006a9181610075565b506026600255610116565b828054600181600116156101000203166002900490600052602060002090601f0160209004810192826100ab57600085556100f1565b82601f106100c457805160ff19168380011785556100f1565b828001600101855582156100f1579182015b828111156100f15782518255916020019190600101906100d6565b506100fd929150610101565b5090565b5b808211156100fd5760008155600101610102565b610b59806101256000396000f3fe608060405234801561001057600080fd5b506004361061002b5760003560e01c8063a7dd098914610030575b600080fd5b6100d66004803603602081101561004657600080fd5b81019060208101813564010000000081111561006157600080fd5b82018360208201111561007357600080fd5b8035906020019184600183028401116401000000008311171561009557600080fd5b91908080601f0160208091040260200160405190810160405280939291908181526020018383808284376000920191909152509295506100d8945050505050565b005b6000805460408051602060026001851615610100026000190190941693909304601f810184900484028201840190925281815261020392909184918301828280156101645780601f1061013957610100808354040283529160200191610164565b820191906000526020600020905b81548152906001019060200180831161014757829003601f168201915b505060018054604080516020601f600260001961010087891615020190951694909404938401819004810282018101909252828152955091935091508301828280156101f15780601f106101c6576101008083540402835291602001916101f1565b820191906000526020600020905b8154815290600101906020018083116101d457829003601f168201915b505060025488959493509150506102bb565b90507f7f0a42749a094de2035da417e2feb496454a8dd0ef5f017fec89dc5c7cbd5be433438460405180846001600160a01b0316815260200183815260200180602001828103825283818151815260200191508051906020019080838360005b8381101561027b578181015183820152602001610263565b50505050905090810190601f1680156102a85780820380516001836020036101000a031916815260200191505b5094505050505060405180910390a15050565b600080600086905060006102dc60008851846104329092919063ffffffff16565b90506102e8818861053b565b9250826102fb576000935050505061042a565b805160009061030d9084906001610432565b9050610319818861053b565b93508361032d57600094505050505061042a565b600061034f83516001016001855187510303866104329092919063ffffffff16565b90508681511494508461036a5760009550505050505061042a565b8251845160009161038691879160018101910360061901610432565b905060006103938561059f565b6040805160208082526104208201909252919250600091908082016104008036833701905050905060005b82518110156103ea57806001018282815181106103d757fe5b60209081029190910101526001016103be565b50805115159750876104075760009850505050505050505061042a565b60006104138383610634565b905061041f858261053b565b505050505050505050505b949350505050565b60608182601f01101561047d576040805162461bcd60e51b815260206004820152600e60248201526d736c6963655f6f766572666c6f7760901b604482015290519081900360640190fd5b818301845110156104c9576040805162461bcd60e51b8152602060048201526011602482015270736c6963655f6f75744f66426f756e647360781b604482015290519081900360640190fd5b6060821580156104e85760405191506000825260208201604052610532565b6040519150601f8416801560200281840101858101878315602002848b0101015b81831015610521578051835260209283019201610509565b5050858452601f01601f1916604052505b50949350505050565b8151815160009160019181148083146105575760009250610595565b600160208701838101602088015b6002848385100114156105905780518351146105845760009650600093505b60209283019201610565565b505050505b5090949350505050565b6060815167ffffffffffffffff811180156105b957600080fd5b506040519080825280602002602001820160405280156105e3578160200160208202803683370190505b50905060005b825181101561062e578281815181106105fe57fe5b602001015160f81c60f81b60f81c60ff1682828151811061061b57fe5b60209081029190910101526001016105e9565b50919050565b6060600061064b83610646868661072b565b6107c8565b90506000815167ffffffffffffffff8111801561066757600080fd5b506040519080825280601f01601f191660200182016040528015610692576020820181803683370190505b50905060005b8251811015610532576040518060400160405280602081526020017f71707a7279397838676632747664773073336a6e35346b686365366d7561376c8152508382815181106106e357fe5b6020026020010151815181106106f557fe5b602001015160f81c60f81b82828151811061070c57fe5b60200101906001600160f81b031916908160001a905350600101610698565b6060600061074d61074461073e8661089b565b856107c8565b60006006610998565b9050600061075a82610a5e565b60408051600680825260e082019092526001929092189250600091906020820160c08036833701905050905060005b60068110156107be578060050360050283901c601f168282815181106107ab57fe5b6020908102919091010152600101610789565b5095945050505050565b60606000825184510167ffffffffffffffff811180156107e757600080fd5b50604051908082528060200260200182016040528015610811578160200160208202803683370190505b50905060005b84518110156108535784818151811061082c57fe5b602002602001015182828151811061084057fe5b6020908102919091010152600101610817565b60005b845181101561059557845160018201918691811061087057fe5b602002602001015183838060010194508151811061088a57fe5b602002602001018181525050610856565b60606000825183510160010167ffffffffffffffff811180156108bd57600080fd5b506040519080825280602002602001820160405280156108e7578160200160208202803683370190505b50905060005b835181101561092d57600584828151811061090457fe5b6020026020010151901c82828151811061091a57fe5b60209081029190910101526001016108ed565b5060008184518151811061093d57fe5b60200260200101818152505060005b83518110156109915783818151811061096157fe5b6020026020010151601f1682855183016001018151811061097e57fe5b602090810291909101015260010161094c565b5092915050565b606060008285510167ffffffffffffffff811180156109b657600080fd5b506040519080825280602002602001820160405280156109e0578160200160208202803683370190505b50905060005b8551811015610a22578581815181106109fb57fe5b6020026020010151828281518110610a0f57fe5b60209081029190910101526001016109e6565b60005b84811015610a535785838380600101945081518110610a4057fe5b6020908102919091010152600101610a25565b509095945050505050565b6040805160a081018252633b6a57b281526326508e6d6020820152631ea119fa91810191909152633d4233dd6060820152632a1462b360808201526000906001825b8451811015610b1b576000601983901c9050858281518110610abe57fe5b60200260200101516005846301ffffff16901b18925060005b6005811015610b1157600182821c81161415610b0957848160058110610af957fe5b602002015163ffffffff16841893505b600101610ad7565b5050600101610aa0565b50939250505056fea2646970667358221220de2c974fdcffaf33711f0f23006c00405a62e0b7d3da9d7810f34450f44d0f1b64736f6c63430007060033",
  "immutableReferences": {},
  "source": "pragma solidity >=0.7.0 <0.9.0;\n\nimport \"./Bech32.sol\";\n\ncontract StakeDrop3 {\n\n    using Bech32 for string;\n\n    bytes hrpBytes;\n    bytes controlDigitBytes;\n    uint dataBytesSize;\n\n    event MagicTxEvent(address sender, uint256 height, string xprtAddress);\n\n    /**\n     * @dev Setting the values for bech32 validation attributes\n     */\n    constructor() {\n        // setting bech32 validation attributes\n        hrpBytes = \"persistence\";\n        controlDigitBytes = \"1\";\n        dataBytesSize = 38;\n    }\n\n    /**\n     * @dev emits the event for xprt address\n     */\n    function MagicTx(string memory xprtAddress) public {\n        //check if toChainAddress is valid address\n        bool isAddressValid = xprtAddress.isBech32AddressValid(hrpBytes, controlDigitBytes, dataBytesSize);\n        //require(isAddressValid == true, \"StakeDrop3: Invalid xprt address \");\n        emit MagicTxEvent(msg.sender, block.number, xprtAddress);\n    }\n}",
  "sourcePath": "/home/aditimahesh/Documents/Work/Persistence/go/src/github.com/persistenceOne/stakeDrop/magic/contracts/magicTx3.sol",
  "compiler": {
    "name": "solc",
    "version": "0.7.6+commit.7338295f.Emscripten.clang"
  },
  "schemaVersion": "3.3.4",
  "updatedAt": "2021-06-09T12:08:25.860Z",
  "networkType": "ethereum",
  "devdoc": {
    "kind": "dev",
    "methods": {
      "MagicTx(string)": {
        "details": "emits the event for xprt address"
      },
      "constructor": {
        "details": "Setting the values for bech32 validation attributes"
      }
    },
    "version": 1
  },
  "userdoc": {
    "kind": "user",
    "methods": {},
    "version": 1
  }
}